:020000040800F2
:1000000048050020010100087B1A0008851500083A
:10001000791A000899010008E72000080000000094
:10002000000000000000000000000000D71C0008D5
:10003000A103000800000000D51C0008D91C00081E
:100040001B0100081B0100081B0100081B01000820
:100050001B0100081B0100081B0100081B01000810
:100060001B0100081B0100081B0100081B01000800
:100070001B0100081B0100081B0100081B010008F0
:100080001B0100081B0100081B0100081B010008E0
:100090001B0100081B0100081B0100081B010008D0
:1000A0001B0100081B0100081B0100081B010008C0
:1000B0003D1D00081B0100081B0100081B01000872
:1000C0001B0100081B0100081B0100081B010008A0
:1000D0001B0100081B0100081B0100081B01000890
:1000E0001B0100081B0100081B010008DFF80CD0F1
:1000F00000F040F800480047ED22000848050020C5
:100100000648804706480047FEE7FEE7FEE7FEE7B1
:10011000FEE7FEE7FEE7FEE7FEE7FEE7391D000823
:10012000ED000008D2B201E000F8012B491EFBD21D
:1001300070470022F6E710B513460A4604461946F2
:10014000FFF7F0FF204610BD30B50B4601460020FA
:100150002022012409E021FA02F59D4205D303FA89
:1001600002F5491B04FA02F52844151EA2F101020A
:10017000F1DC30BD064C074D06E0E06840F00103BD
:1001800094E8070098471034AC42F6D3FFF7B2FF6B
:10019000702C0008902C0008FEE7000010B500F05D
:1001A000CDF8044901200860BDE81040024800F085
:1001B000E3B800001008014040420F002DE9FC4167
:1001C000054672B600F076F808B162B622E0002467
:1001D000E846002006464006070E00F02DF8761C83
:1001E0003843F6B2082EF6D308F80400641CE4B2D3
:1001F000052CEED362B69DF800409DF801309DF8C5
:1002000002209DF80310E018561806449DF80400DB
:10021000864202D00120BDE8FC812C706B70AA7070
:10022000E970287100F08AF8024901200860002076
:10023000F1E70000100801402DE9F04100244FF4DF
:10024000FA77DFF85C8005E0641CBC4225D8012009
:1002500000F092F8D8F80000C007F5D0114D68689A
:10026000114E0024306005E0641CBC4215D801200A
:1002700000F082F8D8F80000C007F5D10B480C490F
:100280000068B0FBF1F069683268891AB1FBF0F0E0
:100290002D2802D90120BDE8F0810020FBE70000F5
:1002A00008080140001000E00000002014000020B9
:1002B00040420F0070B500F041F81F48012404606F
:1002C00044F2506000F058F81B48001F04601E20E4
:1002D00000F052F818481438016821F00F0101604D
:1002E000016841F004010160134C00254FF47A7657
:1002F0000C3C05E06D1CB54215D8012000F03CF81F
:100300002068C007F6D1002505E06D1CB5420AD86B
:10031000012000F031F82068C007F6D0002507E082
:100320006D1CB54201D9012070BD012000F024F8F8
:100330002068C007F4D170BD14080140044801686A
:1003400021F00F010160016841F003010160704775
:10035000000801400648016841F0807101600548CD
:1003600000214160016841F0010101607047000017
:10037000FCED00E0001000E0064A10B553680649A5
:10038000064C0968B1FBF4F141435068C01A884239
:10039000FBD310BD001000E01400002040420F000D
:1003A000704772B6FEE700002DE9F84FDFF8B8910C
:1003B0000024A9F1040B23460F2709F1040AABF12D
:1003C000040EC9E00125A5402A40AA427DD1674E0E
:1003D000D1F804C0ACEB0608B44532D014DCBCF153
:1003E000030F3AD009DCBCF1000F2AD0BCF1010F99
:1003F0001CD0BCF1020F31D11DE0BCF1110F17D0A0
:10040000BCF1120F2AD119E0B8F5881F19D006DC0B
:10041000B8F5803F15D0B8F5801F1FD111E0B8F5B1
:10042000001F0ED0B8F5041F18D10AE0CB6815E004
:10043000CB681B1D12E0CB6808330FE0CB680C3390
:100440000CE08B682BB1012B4FF0080303D0456102
:1004500004E0042302E0056100E00023FF2A01D844
:10046000064601E000F104064FEA840501D9A5F132
:100470002005D6F8008007FA05FC28EA0C0803FAE4
:1004800005F548EA0508C6F800804D68ED0062D51C
:10049000374DAE6946F00106AE61AD6924F0030642
:1004A00005F001050095334D06EB050CDCF808500E
:1004B000A607360F07FA06F825EA0805DFF8B88020
:1004C000404503D14FF0000817E044E0DFF8AC806E
:1004D000404502D14FF001080FE0DFF8A48040450D
:1004E00002D14FF0020808E0DFF89880404502D1C1
:1004F0004FF0030801E04FF0040808FA06F848EA54
:100500000508CCF808804D68D9F80060ED024D462A
:1005100001D5164300E096432E604D68DAF800607E
:10052000AD02554601D5164300E096432E604D6856
:10053000DBF80060AD035D4601D5164300E096434D
:100540002E604D68DEF80060ED03754601D5164358
:1005500000E096432E60641C0D682A46E5407FF457
:1005600031AFBDE8F88F0000080401400000111011
:10057000001002400000014000080140000C014052
:100580000010014000140140C26821EA02030A4041
:1005900043EA0241016170470AB1016170470904F1
:1005A000FBE7000001488068704700000800002059
:1005B00070B5040025D094F83D00002520B984F8DA
:1005C0003C50204600F050F9242084F83D0020687B
:1005D000016821F0010101602068016841F40041D7
:1005E00001602068016821F40041016000F098FA80
:1005F0004D4A6168914201D84C4900E04C4988421B
:1006000001D2012070BD4B492368B0FBF1F15E6857
:1006100026F03F060E435E606368934206D94FF4AE
:10062000967359434FF47A73B1FBF3F12368491C75
:100630001E6A26F03F06314319626168914210D864
:100640004900401EB0FBF1F2521CC2F30B02042A17
:1006500001D2042022E0B0FBF1F0401CC0F30B00FB
:100660001CE0A268F2B301EBC10303EB0116431EC9
:10067000B3FBF6F35B1C43F480431B0549D092B3F4
:1006800001EBC10202EB0111401EB0FBF1F0401C76
:10069000C0F30B0040F4804040F400402168CA6978
:1006A0004CF6FF739A431043C861D4E90710014325
:1006B0002068026822F0C00211430160D4E90301FE
:1006C00001432068826848F2FF339A4311438160F6
:1006D000D4E9050108432168CA6822F0FF021043EB
:1006E000C86001E00EE016E02068016841F00101F9
:1006F00001602564202084F83D00256384F83E5085
:10070000002070BD01EB4106431EB3FBF6F35B1CFA
:10071000B3E70120C2E701EB4101401EB0FBF1F05D
:10072000401CC0F30B00B7E7A086010080841E00C8
:1007300000093D0040420F002DE9FF4F83B09A466B
:10074000DDE9119793460446DDF84080FFF72AFF64
:10075000054694F83D0020287FD119230122404905
:100760002046009500F0A6FF002876D194F83C00C2
:10077000012872D0012084F83C0020680168C90774
:1007800003D1016841F0010101602068016821F492
:1007900000610160212084F83D00402084F83E0083
:1007A00000262664C4F82480A4F82A90608D208551
:1007B0002C48E062CDE9007553465A46204604991C
:1007C00000F0F8FE70B930E02A463946204601F0C4
:1007D00017F858B1206C042804D12068016841F44E
:1007E00000710160012007B0BDE8F08F606A2168E8
:1007F00000780861606A401C6062218D491E89B2E0
:100800002185628D521E628522685369DB435B0736
:100810000BD469B100781061606A401C6062208D61
:10082000401E2085608D401E6085208D0028CBD124
:100830002A463946204600F011FF0028CAD154F854
:100840003D0B016841F400710160202004F81E098D
:10085000E67766770020C6E7FFE70220C3E70000DF
:10086000020010000000FFFF10B586B000210091CB
:1008700001910291039100680F4988421AD10F4CEF
:10088000A06940F00800A061A069694600F0080076
:100890000490C0200090122001900320039008488B
:1008A000FFF782FDE06940F40010E061E06900F4C8
:1008B0000010049006B010BD00540040001002402B
:1008C000000C014002488168027811448160704741
:1008D00008000020074810B5016841F010010160D0
:1008E000032000F075F80F2000F006F800F024F85F
:1008F000002010BD0020024070B50D4D04464FF49D
:100900007A712878B1FBF0F00A490968B1FBF0F080
:1009100000F0DCFA48B9102C07D200222146501E04
:1009200000F036F800206C6070BD012070BD000042
:1009300008000020140000200C4808B5816941F02F
:1009400001018161816901F001010091C16941F0FA
:100950008051C161C06900F0805000900448416836
:1009600021F0E06141F08061416008BD001002406B
:1009700000000140002809DB00F01F020121914026
:100980004009800000F1E020C0F80011704700002D
:10099000F0B40E4B1B680C46C3F30223C3F10705EA
:1009A000042D00D90425191D072901D2002300E0D8
:1009B000DB1E012606FA05F1491E214099409E40A2
:1009C000761E16403143F0BC01F0B2BB0CED00E0E6
:1009D000064900F0070208684FF6FF03184040EA96
:1009E0000220034A10430860704700000CED00E04D
:1009F0000000FA052DE9F0470F46050061D0434E8F
:100A0000306800F00700B84209D2306820F00700D3
:100A100038433060306800F00700B84251D1286890
:100A20003B4C810712D5400703D5606840F4E06075
:100A300060602878000703D5606840F4605060600B
:100A40006068A96820F0F000084360602878C0075B
:100A500028D06868012810D02168022810D08907A2
:100A600000292EDA616821F0030101436160FFF77C
:100A700099FD804641F288390DE021688903EFE74E
:100A80008901EDE7FFF78EFDA0EB0801494502D98A
:100A90000320BDE8F0876068696800F00C00B0EBE7
:100AA000810FEFD1306800F00700B8420BD93068F1
:100AB00020F0070038433060306800F00700B8428B
:100AC00001D00120E5E72878400705D56068E9688E
:100AD00020F4E060084360602878000706D560686D
:100AE000296920F4605040EAC100606000F038F8E5
:100AF0006168084AC1F30311515CC84006490860A7
:100B000006480068FFF7F8FE0020C2E70020024018
:100B100000100240562C0008140000200C00002099
:100B20000448054900684968044AC1F30221515C40
:100B3000C84070471400002000100240662C0008D6
:100B40000448054900684968044AC1F3C221515C60
:100B5000C84070471400002000100240662C0008B6
:100B60000E4A51680E4801F00C03042B11D0082BDB
:100B70000FD10C48C1F38343C903C05C0AD5516847
:100B8000084AC1F34041921E515C054A5043B0FBF4
:100B9000F1F07047044948437047000000100240DC
:100BA00000127A00462C000800093D002DE9F84F9C
:100BB000040070D02078C04DC00749D06868C0F3E9
:100BC0008100012807D06868C0F38100022809D19C
:100BD0006868C00306D52868800339D56068002896
:100BE000E7D035E06068B0F5803F0BD010B1B0F5CC
:100BF000A02F11D0286820F480302860286820F4C5
:100C0000802002E0286840F480302860606890B15D
:100C1000FFF7C8FC06460AE0286840F480202860F8
:100C2000F0E700BFFFF7BEFC801B642873D828687C
:100C30008003F7D50CE0FFF7B5FC064605E000BFE2
:100C4000FFF7B0FC801B6428F0D828688003F7D435
:100C500020789A4E80074FF001094FF0000839D5EF
:100C6000686810F00C0F07D06868C0F38100022894
:100C700009D16868C00306D42868800714D52069A4
:100C8000012808D110E02069B0B1C6F80090FFF744
:100C900089FC074605E00AE1FFF784FCC01B022837
:100CA000C4D828688007F7D52868616920F0F80063
:100CB00040EAC10028600DE0C6F80080FFF772FC32
:100CC000074604E0FFF76EFCC01B022823D8286803
:100CD0008007F7D4207800072CD57948A169D9B1CD
:100CE000C0F80090FFF75EFC074604E0FFF75AFCEF
:100CF000C01B02280FD8686A8007F7D571484FF4E7
:100D0000FA510068B0FBF1F0009000BF0098411E5E
:100D10000091FAD20EE080E0C0F80080FFF742FCBC
:100D2000074604E0FFF73EFCC01B022875D8686A3E
:100D30008007F7D42078400760D5E8690027C00015
:100D400008D4E86940F08050E861E869012700F0C4
:100D5000805000905C480168C90513D4016883463F
:100D600041F480710160FFF71DFC824606E000BF80
:100D7000FFF718FCA0EB0A0064284ED8DBF800004F
:100D8000C005F5D5E06801280AD008B1052813D0C0
:100D9000286A20F001002862286A20F0040002E09E
:100DA000286A40F001002862E06841F2883B98B16F
:100DB000FFF7F8FB82460BE0286A40F00400286247
:100DC000EEE700BFFFF7EEFBA0EB0A0159455AD84A
:100DD000286A8007F6D50CE0FFF7E4FB824605E0C1
:100DE000FFF7E0FBA0EB0A0159454CD8286A8007C1
:100DF000F6D41FB1E86920F08050E861E06988B35B
:100E00006968C1F38101022944D00228C6F86080D4
:100E100004D0FFF7C7FB044638E034E0FFF7C2FB1D
:100E2000074604E0FFF7BEFBC01B02282BD828684A
:100E30008001F7D4206AB0F5803F05D16868A168C9
:100E400020F4003008436860D4E908010843696869
:100E500021F4741108436860C6F86090FFF7A2FBA4
:100E6000044606E025E000BFFFF79CFB001B0228BC
:100E700009D828688001F7D51BE000BFFFF792FB77
:100E8000001B022802D90320BDE8F88F28688001E2
:100E9000F4D40EE00128F7D06868226A00F48031AB
:100EA000914204D1616A00F47010884201D001209F
:100EB000EAE70020E8E7000000100240000042429C
:100EC00080044242140000200070004010B5401E13
:100ED000B0F1807F01D3012010BD4FF0E0246061AC
:100EE0000F21601701F024F90020A0610720206184
:100EF000002010BD7047704770B590F83C20012A63
:100F000026D0012480F83C40022280F83D2003686E
:100F10005A689D6822F070060A6832435A600D4B89
:100F200002689A4208D0B2F1804F05D00A4B9A422B
:100F300002D00A4B9A4204D1496825F08003194334
:100F4000916080F83D40002180F83C10084670BD5B
:100F5000022070BD002C0140000400400008004049
:100F600010B5040003D094F83D0010B107E0012053
:100F700010BD002084F83C00204600F01FF802203D
:100F800084F83D00211D206800F0DEFE012084F879
:100F9000460084F83E0084F83F0084F8400084F85E
:100FA000410084F8420084F8430084F8440084F847
:100FB000450084F83D00002010BD000008B5016820
:100FC0001048B1F1804F0BD00F4A914207D1C1694F
:100FD00041F00201C161C06900F00200009008BD4B
:100FE000C16941F00101C161C069002200F0010046
:100FF000009011461C20FFF7CBFCBDE808401C20E8
:10100000FFF7B8BC001002400004004090F83D100B
:10101000012901D001207047022180F83D100168AC
:10102000CA6842F00102CA6000680B49884208D0D1
:10103000B0F1804F05D00949884202D00849884262
:1010400004D1816801F00701062903D0016841F04D
:101050000101016000207047002C014000040040A5
:101060000008004070B5044690F83C0000250128B7
:1010700017D0012684F83C60022084F83D002068E7
:10108000826822F0770222F47F428260086850284A
:1010900038D00DDC20284FD005DC90B3102811D1BA
:1010A0004AE0022070BD302846D040280AD13BE0FB
:1010B00060282FD070280DD0B0F5805F03D0B0F538
:1010C000005F12D0012584F83D60002084F83C00C8
:1010D000284670BDCB68D1E90121206800F070FE80
:1010E0002068816841F0770109E0CB68D1E90121EE
:1010F000206800F065FE2068816841F480418160CD
:10110000E1E719E0CA684968206800F00DFF502146
:10111000206806E0CA684968206800F016FF602170
:10112000206800F057FECEE7CA684968206800F0E2
:10113000FBFE40212068F4E7226801461046F0E7F4
:1011400070472DE9F04104460068C66805694FF014
:101150000007A90713D5B10711D5F91E01610120B8
:101160002077206880698007204602D0FFF7E8FFDB
:1011700004E000F0A5F8204600F037F9277768076B
:1011800016D5700714D521686FF00400086102209D
:1011900020772068806910F4407F204602D0FFF756
:1011A000CFFF04E000F08CF8204600F01EF927770E
:1011B000280715D5300713D521686FF0080008619E
:1011C000042020772068C0698007204602D0FFF7FE
:1011D000B7FF04E000F074F8204600F006F9277726
:1011E000E80616D5F00614D521686FF010000861E6
:1011F000082020772068C06910F4407F204602D084
:10120000FFF79EFF04E000F05BF8204600F0EDF8E9
:101210002777E80708D0F00706D021686FF00100B3
:101220000861204600F0E2F8280608D5300606D509
:1012300021686FF0800008612046FFF75BFE6806BA
:1012400008D5700606D521686FF040000861204679
:1012500000F0DCF8A8060AD5B00608D521686FF0C2
:10126000200008612046BDE8F041FFF744BEBDE81C
:10127000F081000000B585B000210091019102913C
:10128000039100680B49884211D10B48816941F0F4
:10129000040181618069694600F0040004904020E7
:1012A00000900220019003900448FFF77DF805B0FC
:1012B00000BD000000040040001002400008014092
:1012C000704770B5044690F83C0000260D46012892
:1012D0000FD0012084F83C006AB1042A1DD0082AEE
:1012E0002FD00C2A3FD00126002084F83C00304645
:1012F00070BD022070BD206800F074FD2068816917
:1013000041F0080181612068816921F00401816157
:10131000206881692A69114311E0206800F08AFD84
:101320002068816941F4006181612068816921F44C
:1013300080618161206881692A6941EA02218161B5
:10134000D2E7206800F0A2FD2068C16941F00801E1
:10135000C1612068C16921F00401C1612068C169CF
:101360002A69114311E0206800F0BCFD2068C169C2
:1013700041F40061C1612068C16921F48061C161EB
:101380002068C1692A6941EA0221C161ACE710B550
:10139000040003D094F83D0010B107E0012010BD17
:1013A000002084F83C00204600F01EF8022084F85B
:1013B0003D00211D206800F0C7FC012084F8460094
:1013C00084F83E0084F83F0084F8400084F841002F
:1013D00084F8420084F8430084F8440084F845000F
:1013E00084F83D00002010BD704770470068B0F1E0
:1013F000804F06D103490120087041030248FFF7DE
:10140000C3B870470400002000100140704770B559
:10141000040004D094F84100002510B106E001203A
:1014200070BD84F84050204600F024F8242084F851
:1014300041002068C16821F40051C160204600F0DD
:10144000BDFD2068016921F4904101612068416976
:1014500021F02A0141612068C16841F40051C16056
:101460006564202084F8410084F842006563002010
:1014700070BD000030B585B0002400940194029442
:10148000039400681449884224D11448816941F4C6
:1014900080418161816901F480410491816941F059
:1014A0000401816180690E4D00F0040004904FF446
:1014B00000700090022001900320039069462846A6
:1014C000FEF772FF2815CDE900046946284602940C
:1014D000FEF76AFF05B030BD003801400010024041
:1014E000000801402DE9F843044690F84100984671
:1014F00016460D46202802D00220BDE8F88385B1AB
:101500007EB100206064212084F84100FFF74AF892
:10151000A6848146E684A0682027B0F5805F02D0CB
:1015200003E00120E9E7206910B12E4600250EE016
:1015300000260CE08021204600F09CFDA8B9C6B131
:1015400016F8010B21684860E08C401EE084E08CB6
:101550004B464FF00002CDF800800028EAD14FF052
:101560004001204600F086FD40B184F84170032020
:10157000C3E735F8020BC0F30800E3E784F84170D5
:101580000020BAE7FEE701684A69D24352050FD44A
:101590006FF480624A61002140F8301F20224273BC
:1015A0008173026942F004020261017301207047F5
:1015B000002070472DE9F843044600680D46DDE938
:1015C000089701689846164641F4807101604B46C1
:1015D00000224FF001112046009700F06BF848B14F
:1015E00020680068C00502D54FF400702064032015
:1015F000BDE8F883216805F0FE0008613B464A46D5
:101600001549204600F09EF888B920684169806934
:1016100000903A464946204600F0F2F848B1206C66
:10162000042804D12068016841F4007101600120A0
:10163000DEE7F5B2B8F1010F09D02168300A086180
:101640003A464946204600F0DBF80028E7D12068FA
:1016500005610020CCE700000200010070B51646CD
:101660000D4604461EE02046FFF78DFF08B101201D
:1016700070BD681C16D0FEF795FF801BA84200D8ED
:1016800085B920684069C04340070BD5002044F865
:10169000300F20216173A073216941F02001216185
:1016A0002073E4E720684069C0434007DBD4002092
:1016B00070BD00002DE9F047984617460D460446D8
:1016C000C1F30746DDF820902AE000BFB8F1FF3FE4
:1016D00026D0FEF767FFA0EB0901414502D8B8F11B
:1016E000000F1DD12068012E16D0806925EA000068
:1016F0000004000C12D00020B84211D1002044F8A0
:10170000300F20216173A073216941F02001216114
:1017100020730120BDE8F0874069E7E70120EBE78F
:101720002068012E0AD0806925EA00000004000C20
:1017300006D00020B842C9D00020EBE74069F3E7AB
:101740000120F7E72DE9F047984616460D46044676
:101750004FF000094FF0200AC1F3074723E020684B
:101760004069C043400515D42068016841F4007108
:10177000016021686FF480604861C4F8309084F89B
:101780003DA084F83E90216C41F00401216484F86E
:101790003C9021E0701C06D0FEF704FFA0EB08008F
:1017A000B04203D816B1012F1FD021E02068012FCD
:1017B00015D0806925EA00000004000C18D000BF95
:1017C00044F8309F84F80DA084F80E90216941F010
:1017D0002001216184F80C900120BDE8F087406968
:1017E00025EA00000004000CEAD12068406901E00D
:1017F0002068806925EA00000004000CAFD1ECE706
:1018000070B516460D4604461EE02046FFF7BBFEA7
:1018100008B1012070BD681C16D0FEF7C3FE801B06
:10182000A84200D885B920684069C04300060BD59E
:10183000002044F8300F20216173A073216941F02A
:10184000200121612073E4E720684069C04300065D
:10185000DBD4002070BD00002DE9F04186B00024EB
:1018600024480094019402940394816941F010018A
:101870008161816901F010010491816941F02001C9
:101880008161816901F020010491816941F00401C5
:101890008161816901F004010491816941F00801CD
:1018A00081618069012200F00800134F5503049004
:1018B00029463846FEF770FEDFF8408001221146C7
:1018C0004046FEF769FE0095022601250396CDE904
:1018D000015469463846FEF767FD01AA11200095BC
:1018E00082E8510069464046FEF75EFD06B0BDE85D
:1018F000F08100000010024000100140000801408B
:101900000D4810B50B4901600C49416000214FF4AE
:1019100080428160C0E9031241618161C16101625D
:10192000FEF746FE002803D0BDE81040FEF739BDA3
:1019300010BD0000005400401C000020801A06006A
:1019400010B586B0002417480094019402940394C3
:1019500004944FF080410594016041F6FF01C0E915
:10196000011444F61F61C0E903148461FFF7F8FA1B
:1019700008B1FEF716FD4FF4805000906946094803
:10198000FFF770FB08B1FEF70CFD049404A90548AD
:101990000594FFF7B1FA002801D0FEF702FD06B06A
:1019A00010BD00007000002010B58EB00024079418
:1019B000089409940A940B941C2168460C94FEF731
:1019C000B8FB1E481C4901602721C0E901144F21C2
:1019D000C0E903148461FFF7C3FA08B1FEF7E1FC24
:1019E0004FF48050079007A91448FFF73BFB08B15C
:1019F000FEF7D7FC1148FFF7CAFC08B1FEF7D1FC8F
:101A00000B940BA90D480C94FFF776FA08B1FEF77A
:101A1000C8FC6020CDE90004029400226946074812
:101A20000494FFF74EFC08B1FEF7BBFC0348FFF738
:101A300021FC0EB010BD000000040040B8000020E2
:101A40000C4810B50A4901604FF4E13141600021B2
:101A500081600C22C160C0E904128161C161FFF79D
:101A6000D6FC002803D0BDE81040FEF79ABC10BD9C
:101A70000038014000010020FEE7FEE7002000F0F2
:101A800001B8000070B506465FF0000404F1B00034
:101A9000C0B200F0FBF8002000F0F8F8102000F0D1
:101AA000F5F80025304600F003F96D1CEDB2802DED
:101AB000F8D3641CE4B2082CE8D370BD10B5AE2096
:101AC00000F0E4F8812000F0E1F8FF2000F0DEF8FB
:101AD000A42000F0DBF8A62000F0D8F82E2000F0BB
:101AE000D5F8262000F0D2F8002000F0CFF8002032
:101AF00000F0CCF8032000F0C9F8072000F0C6F889
:101B0000002000F0C3F8FF2000F0C0F8202000F013
:101B1000BDF8102000F0BAF8B02000F0B7F80020AF
:101B200000F0B4F8102000F0B1F8402000F0AEF85A
:101B3000A12000F0ABF8A82000F0A8F83F2000F0AA
:101B4000A5F8C82000F0A2F8D32000F09FF80020EC
:101B500000F09CF8DA2000F099F8122000F096F8D6
:101B6000D92000F093F8222000F090F8DB2000F05C
:101B70008DF8202000F08AF88D2000F087F81420DE
:101B800000F084F8BDE81040AF2000F07FB810B539
:101B90000446B031C8B200F079F8102040EA1410C1
:101BA00000F074F804F00F00BDE8104040F00100B0
:101BB00000F06CB82DE9F047002591468A460446AE
:101BC000012B22D0DFF8BC80022B24D155E0203835
:101BD000C7B27E2C04D90AF10100002400F0FF0AEC
:101BE00051462046FFF7D3FF07EB4700002608EBDE
:101BF0004007B85D00F05CF8761CF6B2062EF8D30C
:101C0000A41D6D1CE4B2EDB201E0DFF87C8019F890
:101C100005000028DBD1BDE8F0872038C7B2782C5A
:101C200004D90AF10100002400F0FF0A51462046C1
:101C3000FFF7ADFF5FF0000606EB071118F8010093
:101C400000F036F8761CF6B2082EF5D30AF1010042
:101C5000C1B22046FFF79BFF5FF0000606EB0711BD
:101C600001EB0800007A00F023F8761CF6B2082E8B
:101C7000F4D308346D1CE4B2EDB219F80500002865
:101C8000CBD1C8E7542600082C24000801B584B045
:101C900001214FF4807204A88DE807000B46002252
:101CA00078210248FEF748FD05B000BD1C00002069
:101CB00001B584B001214FF4807204A88DE80700BB
:101CC0000B46402278210248FEF736FD05B000BDE4
:101CD0001C00002070477047FEF7F4BD30B58FB090
:101CE00028216846FEF725FA14210AA8FEF721FAF2
:101CF00002250120049000951020059000244FF447
:101D00006010CDE9084007956846FEF74FFF08B11F
:101D100072B6FEE70F20CDE90A054FF48060CDE9E9
:101D20000C4002210AA80E94FEF764FE002801D0A0
:101D300072B6FEE70FB030BD704700000148FFF7F4
:101D400000BA000070000020F0B50268194B1A4C70
:101D50001A4D4FF08047984205D0B84203D0A042B8
:101D600001D0A84203D122F070064A68324398425B
:101D700005D0B84203D0A04201D0A84203D122F43A
:101D80004074CA6822434C6922F0800222430260F8
:101D90008A68C2620A688262984201D10969016355
:101DA000012141610169C90703D0016921F00101E5
:101DB0000161F0BD002C014000040040000800401B
:101DC00010B5846842EA032224F47F440A43224384
:101DD000826010BD826822F070020A4342F007015F
:101DE0008160704730B5036A026A22F00102026224
:101DF0004268846924F073050C682C4323F00205C3
:101E00008B682B430A4DA8420BD123F00805CB6801
:101E100022F440722B434D6923F0040315438A6971
:101E20002A434260846149684163036230BD000017
:101E3000002C014030B5026A036A23F010030362EC
:101E4000436884690D6824F4E64444EA05248D68F7
:101E500022F0200242EA05120B4DA8420ED1CD68B5
:101E600022F0800242EA05124D6923F4406343EAFE
:101E700085038D6922F0400243EA85034360846153
:101E800049688163026230BD002C014030B5036AAD
:101E9000026A22F4807202624268C46923F4007309
:101EA00024F073050C682C438D6843EA05230C4D20
:101EB000A8420ED1CD6823F4006343EA05234D699F
:101EC00022F4405242EA05128D6923F4806342EA0B
:101ED00005124260C4614968C163036230BD0000FD
:101EE000002C014030B5046A026A22F4805202627A
:101EF0004268C3690D6823F4E64343EA05238D680D
:101F000024F4005444EA0534064DA84204D14D6936
:101F100022F4804242EA85124260C361496801644A
:101F2000046230BD002C014010B5036A046A24F03D
:101F300001040462846924F0F00444EA021423F0EA
:101F40000A020A438461026210BD10B5036A046A82
:101F500024F010040462846923F0A00324F4704484
:101F600044EA023243EA01118261016210BD016854
:101F70000C3151E8002F22F4907241E80023002B2D
:101F8000F5D10168143151E8002F22F0010241E837
:101F90000023002BF5D1016B012909D101680C3117
:101FA00051E8002F22F0100241E80023002BF5D168
:101FB000202180F8421000210163704770B504466B
:101FC00000680169E26821F440511143016121690F
:101FD000A0680843616908432168CA6841F20C633C
:101FE0009A430243CA6020684169A26921F44071A2
:101FF000114341611E492068884202D1FEF7A0FDCD
:1020000001E0FEF78DFD00EBC00101EB00126068FE
:1020100064218000B2FBF0F3B3FBF1F36FF018061C
:102020007343B2FBF0F5B2FBF0F605EB8305322308
:1020300003EB0515B5FBF1F5B6FBF1F605F0F00580
:1020400005EB0615B2FBF0F6B2FBF0F0B0FBF1F0D9
:102050006FF01802504306EB800003EB0010B0FB5A
:10206000F1F0216800F00F002844886070BD000086
:10207000003801402DE9F843984617460D460446BE
:10208000089E24E0701C22D0FEF78CFAA0EB08001A
:10209000B0421AD8CEB12068C168490717D5802D43
:1020A00015D0402D13D00168C94309070FD401682A
:1020B0000025406800902046FFF759FF0820606423
:1020C00084F840500120BDE8F8830320FBE7206836
:1020D000006835EA000004D00020B842D2D00020C9
:1020E000F1E70120F9E7FEE70FB4054B10B503A9AE
:1020F000044A029800F03CF810BC5DF814FB0000A4
:10210000D1220008180000200FB4084B10B504A914
:1021100002AA039800F02CF8044602A9002000F05F
:10212000D1F8204610BC5DF814FB0000C522000861
:102130000907090E002804DB00F1E02080F80014F4
:10214000704700F00F0000F1E02080F8141D704788
:1021500002E008C8121F08C1002AFAD17047704770
:10216000002001E001C1121F002AFBD170470000CE
:102170002DE9FF4F89B09B460446002506E025283F
:102180000BD05A460B999047641C6D1C2078002890
:10219000F5D10DB02846BDE8F08F0027B8460122E2
:1021A000474900E0074314F8013F203B02FA03F0DF
:1021B0000842F7D120782E2819D114F8010F47F0E2
:1021C00004072A280ED06FF02F022078A0F13001EA
:1021D00009290CD808EB880102EB410100EB01084A
:1021E000641CF2E70A98641C50F8048B0A9020786B
:1021F0000028CED0642808D0692806D075281ED0C3
:102200005A460B9990476D1C58E00A994FF00A09FD
:1022100001C90A91002802DA40422D2102E0390565
:1022200004D52B218DF82010012103E0F90704D0FB
:102230002021F7E78A4608AE0DE00021FAE70A9967
:102240004FF00A0901C90A91F7E74946FDF77CFFFB
:10225000303106F8011D0028F7D1ADEB060000F182
:102260002009780701D44FF00108C84502DDA8EB2A
:10227000090000E000208046002706E008A85A4632
:10228000C05D0B9990476D1C7F1C5745F6DB04E041
:1022900030205A460B9990476D1CB8F10001A8F107
:1022A0000108F5DC05E016F8010B5A460B9990473A
:1022B0006D1CB9F10001A9F10109F4DC641C65E7AA
:1022C000092801000A68531C0B6010707047000059
:1022D00038B504468DF80000022301226946024801
:1022E000FFF700F9204638BD000100208AB0FEF754
:1022F000F1FAFFF7F3FCFFF7AFFAFFF7A1FBFFF7E7
:102300001FFBFFF751FBFFF7FBFAFEF723F8FDF782
:1023100045FF2348FEF77AFEFFF7D0FBFFF7AEFB41
:1023200020A0FFF7E1FE244C20780128FCD10020FA
:10233000207001A8FDF742FF48B120A0FFF7D4FEAE
:10234000022323A200210020FFF734FCECE79DF8D4
:10235000070000909DF806309DF805209DF80410B8
:102360001EA0FFF7C1FEFFF789FB9DF807309DF81F
:10237000062025A103A8FFF7C7FE0021022303AA18
:102380000846FFF717FC9DF805309DF8042022A1B0
:1023900003A8FFF7B9FE012303AA0421D3E7000035
:1023A0007000002044485431312044656D6F205343
:1023B00074617274210D0A000400002044485431F5
:1023C000312052656164204572726F72210D0A00DE
:1023D00044485431312045727200000068756D69BF
:1023E000646974793A2025642E2564202525524895
:1023F00020207C202074656D703A2025642E256491
:1024000020430D0A0000000054656D703A202564D9
:102410002E2564204300000048756D693A2025642C
:102420002E256420252552480000000000000000F1
:1024300000000000002F000000000700070000144B
:102440007F147F1400242A7F2A1200626408132359
:1024500000364955225000000503000000001C22F0
:102460004100000041221C000014083E081400082E
:10247000083E0808000000A06000000808080808DE
:10248000000060600000002010080402003E514976
:10249000453E0000427F4000004261514946002114
:1024A00041454B31001814127F100027454545392E
:1024B000003C4A4949300001710905030036494989
:1024C000493600064949291E000036360000000042
:1024D000563600000008142241000014141414148D
:1024E0000000412214080002015109060032495936
:1024F000513E007C1211127C007F49494936003E52
:1025000041414122007F4141221C007F494949410C
:10251000007F09090901003E4149497A007F080806
:10252000087F0000417F4100002040413F01007FC3
:1025300008142241007F40404040007F020C027F8F
:10254000007F0408107F003E4141413E007F0909A1
:102550000906003E4151215E007F091929460046C7
:10256000494949310001017F0101003F4040403F9E
:10257000001F2040201F003F4038403F00631408E8
:1025800014630007087008070061514945430000C3
:102590007F41410000552A552A55000041417F00E6
:1025A00000040201020400404040404000000102DB
:1025B0000400002054545478007F484444380038C4
:1025C0004444442000384444487F0038545454184C
:1025D00000087E0901020018A4A4A47C007F08045E
:1025E00004780000447D4000004080847D00007F2E
:1025F000102844000000417F4000007C041804784B
:10260000007C0804047800384444443800FC242446
:1026100024180018242418FC007C0804040800482E
:102620005454542000043F444020003C4040207C4F
:10263000001C2040201C003C4030403C004428103E
:102640002844001CA0A0A07C004464544C441414F2
:10265000141414140000000000000000000000002A
:1026600000000000000000F800000000000000333F
:102670003000000000100C06100C060000000000E6
:102680000000000040C07840C0784000043F0404CF
:102690003F040400007088FC08300000001820FF90
:1026A000211E0000F008F000E018000000211C03CB
:1026B0001E211E0000F00888700000001E21232447
:1026C0001927211010160E00000000000000000065
:1026D00000000000000000E01804020000000007F5
:1026E0001820400000020418E000000000402018FC
:1026F00007000000404080F0804040000202010FCF
:1027000001020200000000F0000000000101011FB2
:1027100001010100000000000000000080B0700016
:1027200000000000000000000000000000010101A6
:102730000101010100000000000000000030300035
:10274000000000000000000080601804006018060F
:102750000100000000E010080810E000000F102049
:1027600020100F00001010F8000000000020203F93
:10277000202000000070080808887000003028241D
:1027800022213000003008888848300000182020BE
:1027900020110E000000C02010F8000000070424E3
:1027A000243F240000F80888880808000019212028
:1027B00020110E0000E0108888180000000F112082
:1027C00020110E0000380808C83808000000003F3B
:1027D000000000000070880808887000001C22219A
:1027E00021221C0000E010080810E0000000312247
:1027F00022110F00000000C0C000000000000030E7
:102800003000000000000080000000000000806038
:1028100000000000000080402010080000010204B9
:1028200008102000404040404040400004040404A0
:10283000040404000008102040800000002010085C
:1028400004020100007048080808F0000000003091
:1028500036010000C030C828E810E000071827241F
:1028600023140B000000C038E0000000203C2302CD
:102870000227382008F8888888700000203F202030
:1028800020110E00C0300808080838000718202062
:102890002010080008F808080810E000203F202059
:1028A00020100F0008F88888E8081000203F20203A
:1028B0002320180008F88888E8081000203F20002E
:1028C00003000000C0300808083800000718202066
:1028D000221E020008F808000008F808203F210125
:1028E00001213F20000808F8080800000020203FD0
:1028F0002020000000000808F8080800C080808040
:102900007F00000008F888C028180800203F200138
:102910002638200008F8080000000000203F202092
:102920002020300008F8F800F8F80800203F003FA9
:10293000003F200008F830C00008F808203F2000C1
:1029400007183F00E01008080810E0000F102020D2
:1029500020100F0008F808080808F000203F2101A7
:1029600001010000E01008080810E0000F182424FE
:1029700038504F0008F8888888887000203F200071
:10298000030C302000708808080838000038202127
:1029900021221C00180808F8080818000000203F31
:1029A0002000000008F808000008F808001F202098
:1029B00020201F000878880000C838080000073869
:1029C0000E010000F80800F80008F800033C0700BA
:1029D000073C0300081868808068180820302C0322
:1029E000032C30200838C800C83808000000203FF9
:1029F0002000000010080808C838080020382621E8
:102A000020201800000000FE020202000000007FEB
:102A100040404000000C30C00000000000000001F9
:102A20000638C00000020202FE00000000404040E4
:102A30007F00000000000402020204000000000009
:102A40000000000000000000000000008080808086
:102A5000808080800002020400000000000000006E
:102A60000000000000008080808000000019242207
:102A700022223F2008F8008080000000003F112043
:102A800020110E000000008080800000000E112048
:102A900020201100000000808088F800000E112026
:102AA00020103F200000808080800000001F222234
:102AB00022221300008080F0888888180020203FA0
:102AC000202000000000808080808000006B9494B3
:102AD0009493600008F8008080800000203F21006F
:102AE00000203F2000809898000000000020203F38
:102AF00020200000000000809898000000C0808026
:102B0000807F000008F8000080808000203F2402C1
:102B10002D302000000808F8000000000020203FB1
:102B2000202000008080808080808000203F200066
:102B30003F20003F8080008080800000203F2100F7
:102B400000203F200000808080800000001F2020A7
:102B500020201F00808000808000000080FFA120D6
:102B600020110E000000008080808000000E1120E7
:102B700020A0FF80808080008080800020203F2176
:102B80002000010000008080808080000033242429
:102B900024241900008080E0808000000000001FD5
:102BA000202000008080000000808000001F202086
:102BB00020103F20808080000080808000010E3047
:102BC0000806010080800080008080800F300C03A8
:102BD0000C300F0000808000808080000020312EAB
:102BE0000E312000808080000080808080818E7087
:102BF0001806010000808080808080000021302C39
:102C00002221300000000000807C02020000000051
:102C1000003F404000000000FF00000000000000F6
:102C2000FF0000000002027C800000000040403FE6
:102C30000000000000060101020204040000000080
:102C400000000000010202030405060708090A0B40
:102C50000C0D0E0F1010000000000000000001021B
:102C60000304060708090000000001020304000035
:102C7000902C0008000000201C00000050210008DB
:102C8000AC2C00081C0000202C050000602100086E
:102C90000000000000000000010000001000000023
:0C2CA0000000000000127A00000000009C
:04000005080000ED02
:00000001FF
